{
  "contractName": "ProjectFactory",
  "abi": [
    {
      "constant": true,
      "inputs": [
        {
          "name": "",
          "type": "uint256"
        }
      ],
      "name": "deployedProjects",
      "outputs": [
        {
          "name": "",
          "type": "address"
        }
      ],
      "payable": false,
      "stateMutability": "view",
      "type": "function"
    },
    {
      "constant": false,
      "inputs": [],
      "name": "createProject",
      "outputs": [],
      "payable": false,
      "stateMutability": "nonpayable",
      "type": "function"
    },
    {
      "constant": true,
      "inputs": [],
      "name": "getDeployedCampaigns",
      "outputs": [
        {
          "name": "",
          "type": "address[]"
        }
      ],
      "payable": false,
      "stateMutability": "view",
      "type": "function"
    }
  ],
  "bytecode": "0x6060604052341561000f57600080fd5b61142c8061001e6000396000f300606060405260043610610057576000357c0100000000000000000000000000000000000000000000000000000000900463ffffffff1680634acb9d4f1461005c5780639ec6deaf146100c6578063c7b96dba14610129575b600080fd5b341561006757600080fd5b61006f61013e565b6040518080602001828103825283818151815260200191508051906020019060200280838360005b838110156100b2578082015181840152602081019050610097565b505050509050019250505060405180910390f35b34156100d157600080fd5b6100e760048080359060200190919050506101d2565b604051808273ffffffffffffffffffffffffffffffffffffffff1673ffffffffffffffffffffffffffffffffffffffff16815260200191505060405180910390f35b341561013457600080fd5b61013c610211565b005b610146610299565b60008054806020026020016040519081016040528092919081815260200182805480156101c857602002820191906000526020600020905b8160009054906101000a900473ffffffffffffffffffffffffffffffffffffffff1673ffffffffffffffffffffffffffffffffffffffff168152602001906001019080831161017e575b5050505050905090565b6000818154811015156101e157fe5b90600052602060002090016000915054906101000a900473ffffffffffffffffffffffffffffffffffffffff1681565b600061021b6102ad565b604051809103906000f080151561023157600080fd5b90506000805480600101828161024791906102bd565b9160005260206000209001600083909190916101000a81548173ffffffffffffffffffffffffffffffffffffffff021916908373ffffffffffffffffffffffffffffffffffffffff1602179055505050565b602060405190810160405280600081525090565b6040516110f28061030f83390190565b8154818355818115116102e4578183600052602060002091820191016102e391906102e9565b5b505050565b61030b91905b808211156103075760008160009055506001016102ef565b5090565b9056006060604052341561000f57600080fd5b6110d48061001e6000396000f3006060604052600436106100ba576000357c0100000000000000000000000000000000000000000000000000000000900463ffffffff1680630d8e6e2c146100bf57806312065fe01461014d5780631859e81f1461017657806321f70bac146101d95780633e5a8eb0146102105780633f733e481461027357806340fa72a0146102c05780636e62fca41461032a578063792070ce1461041257806395289a601461046f578063a8e51570146104d9578063d77b1ca2146105de575b600080fd5b34156100ca57600080fd5b6100d261062b565b6040518080602001828103825283818151815260200191508051906020019080838360005b838110156101125780820151818401526020810190506100f7565b50505050905090810190601f16801561013f5780820380516001836020036101000a031916815260200191505b509250505060405180910390f35b341561015857600080fd5b61016061066e565b6040518082815260200191505060405180910390f35b341561018157600080fd5b610197600480803590602001909190505061068d565b604051808273ffffffffffffffffffffffffffffffffffffffff1673ffffffffffffffffffffffffffffffffffffffff16815260200191505060405180910390f35b34156101e457600080fd5b6101fa60048080359060200190919050506106cc565b6040518082815260200191505060405180910390f35b341561021b57600080fd5b61023160048080359060200190919050506106f0565b604051808273ffffffffffffffffffffffffffffffffffffffff1673ffffffffffffffffffffffffffffffffffffffff16815260200191505060405180910390f35b341561027e57600080fd5b6102aa600480803573ffffffffffffffffffffffffffffffffffffffff169060200190919050506108b5565b6040518082815260200191505060405180910390f35b34156102cb57600080fd5b6102d36108fe565b6040518080602001828103825283818151815260200191508051906020019060200280838360005b838110156103165780820151818401526020810190506102fb565b505050509050019250505060405180910390f35b341561033557600080fd5b61034b600480803590602001909190505061095c565b604051808673ffffffffffffffffffffffffffffffffffffffff1673ffffffffffffffffffffffffffffffffffffffff1681526020018060200185815260200184815260200183151515158152602001828103825286818151815260200191508051906020019080838360005b838110156103d35780820151818401526020810190506103b8565b50505050905090810190601f1680156104005780820380516001836020036101000a031916815260200191505b50965050505050505060405180910390f35b341561041d57600080fd5b61046d600480803590602001908201803590602001908080601f01602080910402602001604051908101604052809392919081815260200183838082843782019150505050505091905050610ab4565b005b341561047a57600080fd5b610482610be1565b6040518080602001828103825283818151815260200191508051906020019060200280838360005b838110156104c55780820151818401526020810190506104aa565b505050509050019250505060405180910390f35b34156104e457600080fd5b6104fa6004808035906020019091905050610c75565b604051808673ffffffffffffffffffffffffffffffffffffffff1673ffffffffffffffffffffffffffffffffffffffff16815260200180602001858152602001848152602001831515151581526020018281038252868181546001816001161561010002031660029004815260200191508054600181600116156101000203166002900480156105cb5780601f106105a0576101008083540402835291602001916105cb565b820191906000526020600020905b8154815290600101906020018083116105ae57829003601f168201915b5050965050505050505060405180910390f35b34156105e957600080fd5b610615600480803573ffffffffffffffffffffffffffffffffffffffff16906020019091905050610cd7565b6040518082815260200191505060405180910390f35b610633610e86565b6040805190810160405280600d81526020017f76657273696f6e20302e302e3300000000000000000000000000000000000000815250905090565b60003073ffffffffffffffffffffffffffffffffffffffff1631905090565b60038181548110151561069c57fe5b90600052602060002090016000915054906101000a900473ffffffffffffffffffffffffffffffffffffffff1681565b6001818154811015156106db57fe5b90600052602060002090016000915090505481565b60008060008084815260200190815260200160002090506001816003016000828254019250508190555060018160040160003373ffffffffffffffffffffffffffffffffffffffff1673ffffffffffffffffffffffffffffffffffffffff16815260200190815260200160002060006101000a81548160ff021916908315150217905550806000808581526020019081526020016000206000820160009054906101000a900473ffffffffffffffffffffffffffffffffffffffff168160000160006101000a81548173ffffffffffffffffffffffffffffffffffffffff021916908373ffffffffffffffffffffffffffffffffffffffff16021790555060018201816001019080546001816001161561010002031660029004610815929190610e9a565b5060028201548160020155600382015481600301556005820160009054906101000a900460ff168160050160006101000a81548160ff021916908315150217905550905050610888838260000160009054906101000a900473ffffffffffffffffffffffffffffffffffffffff16610cef565b8060000160009054906101000a900473ffffffffffffffffffffffffffffffffffffffff16915050919050565b6000600260008373ffffffffffffffffffffffffffffffffffffffff1673ffffffffffffffffffffffffffffffffffffffff168152602001908152602001600020549050919050565b610906610f21565b600180548060200260200160405190810160405280929190818152602001828054801561095257602002820191906000526020600020905b81548152602001906001019080831161093e575b5050505050905090565b6000610966610e86565b600080600080600087815260200190815260200160002060000160009054906101000a900473ffffffffffffffffffffffffffffffffffffffff16600080888152602001908152602001600020600101600080898152602001908152602001600020600201546000808a8152602001908152602001600020600301546000808b815260200190815260200160002060050160009054906101000a900460ff16838054600181600116156101000203166002900480601f016020809104026020016040519081016040528092919081815260200182805460018160011615610100020316600290048015610a9a5780601f10610a6f57610100808354040283529160200191610a9a565b820191906000526020600020905b815481529060010190602001808311610a7d57829003601f168201915b505050505093509450945094509450945091939590929450565b6000610abe610f35565b42915060a0604051908101604052803373ffffffffffffffffffffffffffffffffffffffff168152602001848152602001838152602001600081526020016000151581525090508060008084815260200190815260200160002060008201518160000160006101000a81548173ffffffffffffffffffffffffffffffffffffffff021916908373ffffffffffffffffffffffffffffffffffffffff1602179055506020820151816001019080519060200190610b7b929190610f83565b50604082015181600201556060820151816003015560808201518160050160006101000a81548160ff02191690831515021790555090505060018054806001018281610bc79190611003565b916000526020600020900160008490919091505550505050565b610be961102f565b6003805480602002602001604051908101604052809291908181526020018280548015610c6b57602002820191906000526020600020905b8160009054906101000a900473ffffffffffffffffffffffffffffffffffffffff1673ffffffffffffffffffffffffffffffffffffffff1681526020019060010190808311610c21575b5050505050905090565b60006020528060005260406000206000915090508060000160009054906101000a900473ffffffffffffffffffffffffffffffffffffffff169080600101908060020154908060030154908060050160009054906101000a900460ff16905085565b60026020528060005260406000206000915090505481565b60028060003073ffffffffffffffffffffffffffffffffffffffff1673ffffffffffffffffffffffffffffffffffffffff16815260200190815260200160002054811515610d3957fe5b04600080848152602001908152602001600020600301541115610e825760028060003073ffffffffffffffffffffffffffffffffffffffff1673ffffffffffffffffffffffffffffffffffffffff1681526020019081526020016000206000828254019250508190555060028060008373ffffffffffffffffffffffffffffffffffffffff1673ffffffffffffffffffffffffffffffffffffffff1681526020019081526020016000206000828254019250508190555060038054806001018281610e049190611043565b9160005260206000209001600083909190916101000a81548173ffffffffffffffffffffffffffffffffffffffff021916908373ffffffffffffffffffffffffffffffffffffffff16021790555050600160008084815260200190815260200160002060050160006101000a81548160ff0219169083151502179055505b5050565b602060405190810160405280600081525090565b828054600181600116156101000203166002900490600052602060002090601f016020900481019282601f10610ed35780548555610f10565b82800160010185558215610f1057600052602060002091601f016020900482015b82811115610f0f578254825591600101919060010190610ef4565b5b509050610f1d919061106f565b5090565b602060405190810160405280600081525090565b60a060405190810160405280600073ffffffffffffffffffffffffffffffffffffffff168152602001610f66611094565b815260200160008152602001600081526020016000151581525090565b828054600181600116156101000203166002900490600052602060002090601f016020900481019282601f10610fc457805160ff1916838001178555610ff2565b82800160010185558215610ff2579182015b82811115610ff1578251825591602001919060010190610fd6565b5b509050610fff919061106f565b5090565b81548183558181151161102a57818360005260206000209182019101611029919061106f565b5b505050565b602060405190810160405280600081525090565b81548183558181151161106a57818360005260206000209182019101611069919061106f565b5b505050565b61109191905b8082111561108d576000816000905550600101611075565b5090565b90565b6020604051908101604052806000815250905600a165627a7a7230582001d6a08cca563c5580253951c5681efe8b91ebe5dcc797b8bb23779c04425d5c0029a165627a7a723058200babd3e5d3e9d16c6d812235525ffbca08d1220761affed1e09fdf551a54f7d20029",
  "source": "pragma solidity ^0.4.18;\n\nimport './GruntFund.sol';\n\ncontract ProjectFactory {\n    address[] public deployedProjects;\n    function createProject() public {\n        address newProject = new GruntFund();\n        deployedProjects.push(newProject);\n    }\n    function getDeployedCampaigns() public view returns(address[]){\n        return deployedProjects;\n    }\n}",
  "sourcePath": "/Users/joshpitzalis/Desktop/mitosis/gruntFunder/contracts/ProjectFactory.sol",
  "compiler": {
    "name": "solc",
    "version": "0.4.19+commit.c4cbbb05.Emscripten.clang"
  },
  "schemaVersion": "2.0.0",
  "updatedAt": "2018-04-04T07:43:34.582Z"
}